{"abi":[{"type":"receive","stateMutability":"payable"},{"type":"function","name":"balances","inputs":[{"name":"","type":"address","internalType":"address"}],"outputs":[{"name":"","type":"uint256","internalType":"uint256"}],"stateMutability":"view"},{"type":"function","name":"deposit","inputs":[],"outputs":[],"stateMutability":"payable"},{"type":"function","name":"getBalance","inputs":[{"name":"user","type":"address","internalType":"address"}],"outputs":[{"name":"","type":"uint256","internalType":"uint256"}],"stateMutability":"view"},{"type":"function","name":"totalDeposits","inputs":[],"outputs":[{"name":"","type":"uint256","internalType":"uint256"}],"stateMutability":"view"},{"type":"function","name":"withdraw","inputs":[{"name":"amount","type":"uint256","internalType":"uint256"}],"outputs":[],"stateMutability":"nonpayable"},{"type":"event","name":"Deposit","inputs":[{"name":"user","type":"address","indexed":true,"internalType":"address"},{"name":"amount","type":"uint256","indexed":false,"internalType":"uint256"},{"name":"timestamp","type":"uint256","indexed":false,"internalType":"uint256"}],"anonymous":false},{"type":"event","name":"Withdrawal","inputs":[{"name":"user","type":"address","indexed":true,"internalType":"address"},{"name":"amount","type":"uint256","indexed":false,"internalType":"uint256"},{"name":"timestamp","type":"uint256","indexed":false,"internalType":"uint256"}],"anonymous":false}],"bytecode":{"object":"0x608060405234801561000f575f80fd5b506108b08061001d5f395ff3fe60806040526004361061004d575f3560e01c806327e235e3146101125780632e1a7d4d1461014e5780637d88209714610176578063d0e30db0146101a0578063f8b2cb4f146101aa5761010e565b3661010e57345f803373ffffffffffffffffffffffffffffffffffffffff1673ffffffffffffffffffffffffffffffffffffffff1681526020019081526020015f205f82825461009d919061055e565b925050819055503460015f8282546100b5919061055e565b925050819055503373ffffffffffffffffffffffffffffffffffffffff167f90890809c654f11d6e72a28fa60149770a0d11ec6c92319d6ceb2bb0a4ea1a1534426040516101049291906105a0565b60405180910390a2005b5f80fd5b34801561011d575f80fd5b5061013860048036038101906101339190610625565b6101e6565b6040516101459190610650565b60405180910390f35b348015610159575f80fd5b50610174600480360381019061016f9190610693565b6101fa565b005b348015610181575f80fd5b5061018a6103df565b6040516101979190610650565b60405180910390f35b6101a86103e5565b005b3480156101b5575f80fd5b506101d060048036038101906101cb9190610625565b6104e3565b6040516101dd9190610650565b60405180910390f35b5f602052805f5260405f205f915090505481565b805f803373ffffffffffffffffffffffffffffffffffffffff1673ffffffffffffffffffffffffffffffffffffffff1681526020019081526020015f20541015610279576040517f08c379a000000000000000000000000000000000000000000000000000000000815260040161027090610718565b60405180910390fd5b805f803373ffffffffffffffffffffffffffffffffffffffff1673ffffffffffffffffffffffffffffffffffffffff1681526020019081526020015f205f8282546102c49190610736565b925050819055508060015f8282546102dc9190610736565b925050819055505f3373ffffffffffffffffffffffffffffffffffffffff168260405161030890610796565b5f6040518083038185875af1925050503d805f8114610342576040519150601f19603f3d011682016040523d82523d5f602084013e610347565b606091505b505090508061038b576040517f08c379a0000000000000000000000000000000000000000000000000000000008152600401610382906107f4565b60405180910390fd5b3373ffffffffffffffffffffffffffffffffffffffff167fdf273cb619d95419a9cd0ec88123a0538c85064229baa6363788f743fff90deb83426040516103d39291906105a0565b60405180910390a25050565b60015481565b5f3411610427576040517f08c379a000000000000000000000000000000000000000000000000000000000815260040161041e9061085c565b60405180910390fd5b345f803373ffffffffffffffffffffffffffffffffffffffff1673ffffffffffffffffffffffffffffffffffffffff1681526020019081526020015f205f828254610472919061055e565b925050819055503460015f82825461048a919061055e565b925050819055503373ffffffffffffffffffffffffffffffffffffffff167f90890809c654f11d6e72a28fa60149770a0d11ec6c92319d6ceb2bb0a4ea1a1534426040516104d99291906105a0565b60405180910390a2565b5f805f8373ffffffffffffffffffffffffffffffffffffffff1673ffffffffffffffffffffffffffffffffffffffff1681526020019081526020015f20549050919050565b5f819050919050565b7f4e487b71000000000000000000000000000000000000000000000000000000005f52601160045260245ffd5b5f61056882610528565b915061057383610528565b925082820190508082111561058b5761058a610531565b5b92915050565b61059a81610528565b82525050565b5f6040820190506105b35f830185610591565b6105c06020830184610591565b9392505050565b5f80fd5b5f73ffffffffffffffffffffffffffffffffffffffff82169050919050565b5f6105f4826105cb565b9050919050565b610604816105ea565b811461060e575f80fd5b50565b5f8135905061061f816105fb565b92915050565b5f6020828403121561063a576106396105c7565b5b5f61064784828501610611565b91505092915050565b5f6020820190506106635f830184610591565b92915050565b61067281610528565b811461067c575f80fd5b50565b5f8135905061068d81610669565b92915050565b5f602082840312156106a8576106a76105c7565b5b5f6106b58482850161067f565b91505092915050565b5f82825260208201905092915050565b7f496e73756666696369656e742062616c616e63650000000000000000000000005f82015250565b5f6107026014836106be565b915061070d826106ce565b602082019050919050565b5f6020820190508181035f83015261072f816106f6565b9050919050565b5f61074082610528565b915061074b83610528565b925082820390508181111561076357610762610531565b5b92915050565b5f81905092915050565b50565b5f6107815f83610769565b915061078c82610773565b5f82019050919050565b5f6107a082610776565b9150819050919050565b7f5472616e73666572206661696c656400000000000000000000000000000000005f82015250565b5f6107de600f836106be565b91506107e9826107aa565b602082019050919050565b5f6020820190508181035f83015261080b816107d2565b9050919050565b7f4d757374206465706f736974203e2030000000000000000000000000000000005f82015250565b5f6108466010836106be565b915061085182610812565b602082019050919050565b5f6020820190508181035f8301526108738161083a565b905091905056fea264697066735822122034f6f468e4d33ffb8f342a1f1d1844f13fd5536d24d5ff776f19d12e19e2226e64736f6c63430008140033","linkReferences":{}},"methodIdentifiers":{"balances(address)":"27e235e3","deposit()":"d0e30db0","getBalance(address)":"f8b2cb4f","totalDeposits()":"7d882097","withdraw(uint256)":"2e1a7d4d"},"id":0}